:1000B000AE071FEE600A7E0B7DBEDDFEDEFC80F02B
:0100C000221D
:10007000FF080808FF000E1515150800FF00FF0017
:100080000E1111110E00FD00000000000000000024
:10000300E4F508F509F50A1200CDE4F508E508253D
:100013000990007093FD7C00AF08120090050AE57B
:100023000AD39432400F0509E4F50AE509D394187D
:100033004003E4F5090508E508C3940840CF80CAE6
:02004300AD0707
:10004500E4FB7E007480A803088006CEA2E713CEE9
:1000550013D8F8FFEDF582EF558224FF92B4D2B69E
:0A006500C2B60BBB08DCD2B5C2B571
:01006F00226E
:0500CD00C2B4C2B5221F
:10009000AA07AF05120043AF02A8077480088002C8
:1000A000C313D8FCF4F5807F011200B07580FF22E5
:030000000200C13A
:0C00C100787FE4F6D8FD75810A02000388
:00000001FF
