:10016600E4FD7F0112008F1200F28F12E51260F794
:100176007F647E00120144AD127F0112008F80E77A
:10018600AE071FEE600A7E027DEFDDFEDEFC80F02C
:010196002246
:1000F200E4F51320B1107F1412018630B1FD7F1494
:1001020012018675130120B0107F1412018630B0DF
:10011200FD7F1412018675130220B2107F141201A2
:100122008630B2FD7F1412018675130320B3107F4F
:100132001412018630B3FD7F14120186751304AFC9
:0101420013A9
:010143002299
:0C0197000A083F065B4F666D7D077F6F16
:10008F00EF14B4080050549000A475F003A4C58376
:10009F0025F0C583730200BC0200C00200C4020039
:1000AF00C80200CC0200D40200DC0200E4D2A4801B
:1000BF000ED2A48012D2A48016D2A4801AC2A4D2C7
:1000CF00A3D2A28016C2A4D2A3C2A2800EC2A4C27F
:1000DF00A3D2A28006C2A4C2A3C2A274082DF8E6BE
:0300EF00F5802277
:0501A400007FE3DFFE17
:0101A9002233
:04014400AD07AC0651
:10014800E4FBFAED25E0FFEC33FEC3EB9FEA9E509B
:0D0158000CB2A51201A40BBB00010A80E649
:010165002277
:03000000020003F8
:0C000300787FE4F6D8FD75811302004AF6
:10000F00020166E493A3F8E493A34003F68001F2A0
:10001F0008DFF48029E493A3F85407240CC8C333F2
:10002F00C4540F4420C8834004F456800146F6DFC1
:10003F00E4800B0102040810204080900197E47EB9
:10004F00019360BCA3FF543F30E509541FFEE493B6
:10005F00A360010ECF54C025E060A840B8E493A37D
:10006F00FAE493A3F8E493A3C8C582C8CAC583CAA8
:10007F00F0A3C8C582C8CAC583CADFE9DEE780BE60
:0101A300005B
:00000001FF
