:100003001200BA7D3C7C00E4FF12007D7D427C003F
:100013007F0112007D7DA97C007F0212007D7D851A
:100023007C007F0312007D7D857C007F0412007DB0
:100033007DA97C007F0512007D7D427C007F061236
:0D004300007D7D3C7C007F0712007D80B6B3
:10009D00AE071FEE600A7E0B7DBEDDFEDEFC80F03E
:0100AD002230
:02005000AD07FA
:10005200E4FB7E007480A803088006CEA2E713CEDC
:1000620013D8F8FFEDF582EF558224FF92B4D2B691
:0A007200C2B60BBB08DCD2B5C2B564
:01007C002261
:0500BA00C2B4C2B52232
:10007D00AA07AF05120050AF02A8077480088002CE
:10008D00C313D8FCF4F580E4FF12009D7580FF22A8
:030000000200AE4D
:0C00AE00787FE4F6D8FD7581070200039E
:00000001FF
