:10000E001203991203FD8F28E528B4010CE5277021
:10001E00047F0180027F008F27E528B40215E4F5E6
:10002E0025F524F526E527600A70047F0180027FFE
:10003E00008F27E5286403702DE525FD7C00E4FF85
:10004E001203217F051203C6E524FD7C007F0112F9
:10005E0003217F051203C6E526FD7C007F021203F5
:10006E00217F051203C6E528B40415E4FF1202A190
:10007E008F257F011202A18F247F021202A18F26EB
:10008E00E52575F00A84FD7F01120003E52575F064
:10009E000A84ADF07F021200037D0B7F0312000372
:1000AE00E52475F00A84FD7F04120003E52475F043
:1000BE000A84ADF07F051200037D0B7F061200034C
:1000CE00E52675F00A84FD7F07120003E52675F01C
:0C00DE000A84ADF07F081200030200113C
:1002FA00E52760220526E526C394644019E4F5261D
:10030A000524E524943C400EE4F5240525E52594CE
:07031A003C4003E4F525223D
:03000B000200EA06
:1000EA00C0E0C0F0C083C082C0D075D000C000C0DC
:0D00FA0001C002C003C004C005C006C0075D
:10010700758A66758CFC051FE51F7002051EC39472
:1001170014E51E94004009751E00751F0012026841
:100127000521E52170020520C39402E520940040D3
:10013700097520007521001203800523E52370024D
:100147000522C3940AE5229400400975220075230D
:04015700001202FA96
:10015B00D007D006D005D004D003D002D001D000F8
:0B016B00D0D0D082D083D0F0D0E032A2
:1003C600AE071FEE600A7E027DEFDDFEDEFC80F0EA
:0103D6002204
:0503FD00E4AF2BF52B1D
:0104020022D7
:1003B000E4FF20B1010F20B0027F0220B2027F03D0
:0503C00020B3027F04E0
:0103C5002215
:1002680085292A1203B08F29E52AB40107E52970E8
:1002780003752B01E52AB40207E5297003752B02E3
:10028800E52AB40307E5297003752B03E52AB404AE
:0802980007E5297003752B0432
:0102A000223B
:100363000909000A0A0A0A0A0A0A0A0C123F065B6A
:0C0373004F666D7D077F6F0040010801A0
:0700030074092FF8A6052285
:10020200E4F580EF14B40800505490021A75F0031C
:10021200A4C58325F0C583730202320202360202AC
:100222003A02023E02024202024A02025202025A08
:10023200D2A4800ED2A48012D2A48016D2A4801A94
:10024200C2A4D2A3D2A28016C2A4D2A3C2A2800EFA
:10025200C2A4C2A3D2A28006C2A4C2A3C2A2741222
:060262002DF8E6F58022F4
:1003800074092508F8E6FDAF081202020508E50821
:08039000C39409400375080144
:010398002242
:100399005389F0438901758A66758CFCC28DD28CAC
:0703A900D2A9D2AFC2B922B4
:100321008F2C8C2D8D2E1203ED7FA01202D1120382
:10033100D7AF2C1202D11203D7AF2E1202D1120362
:04034100D70203F6E6
:0202A1008F2CA0
:1002A3001203ED7FA01202D11203D7AF2C1202D199
:1002B3001203D71203ED7FA11202D11203D7120347
:0D02C300458F2D7F011203E31203F6AF2DCE
:0102D000220B
:0903ED00D2A0D2A1C2A0C2A1223B
:0703F600C2A0D2A1D2A02297
:0202D100AD0777
:1002D300E4FB7E007480A803088006CEA2E713CE59
:1002E30013D8F8FFEDF582EF558224FF92A0D2A137
:0602F300C2A10BBB08DCF8
:0102F90022E2
:10034500E4FFD2A0FED2A130A00DA80674800880DB
:0D03550002C313D8FC4207C2A10EBE08E887
:010362002278
:0A03E300EF24FF92A0D2A1C2A122D4
:0B03D700D2A0D2A1A2A0E433FFC2A17B
:0103E20022F8
:0300000002017684
:0C017600787FE4F6D8FD75812E0201BDF3
:1001820002000EE493A3F8E493A34003F68001F285
:1001920008DFF48029E493A3F85407240CC8C3337E
:1001A200C4540F4420C8834004F456800146F6DF4D
:1001B200E4800B0102040810204080900363E47E77
:1001C200019360BCA3FF543F30E509541FFEE49342
:1001D200A360010ECF54C025E060A840B8E493A309
:1001E200FAE493A3F8E493A3C8C582C8CAC583CA34
:1001F200F0A3C8C582C8CAC583CADFE9DEE780BEEC
:01037F00007D
:00000001FF
