:10099700543A0054483A00544C3A004F563A4800EB
:0A09A7004F563A4C0020202020009B
:10046D00120A577FE8120A37E4FF1207FA8F117F3D
:10047D00011207FA8F0CD3E511648094FD5016C359
:10048D00E50C64809449400DD3E50C6480F8E511CA
:10049D006480985006751123750C19120A237BFF81
:1004AD007A0979977D017F011208A27BFF7A09797C
:1004BD009A7D017F021208A27BFF7A09799E7D0940
:1004CD007F021208A2E511FB3395E0FA751B037D3F
:1004DD00047F021206E3E50CFB3395E0FA751B036E
:1004ED007D0C7F021206E31209CA120AA38F1212A3
:1004FD000A5712082A8F108E0F8D0E8C0DE4FFFEF9
:10050D00FDFCAB10AA0FA90EA80D1201B4501E7B55
:10051D002D7D037F01120A86AF10AE0FAD0EAC0D0F
:10052D0012022D8F168E158D148C1380157B2B7D3D
:10053D00037F01120A86851016850F15850E148509
:10054D000D13AF16AE15AD14AC1312027CAB07AA8A
:10055D0006751B037D047F011209417B2E7D077FEC
:10056D0001120A86E4FFFE7DC87C42AB16AA15A9CE
:10057D0014A81312000E12027CE47B64FAF9F8122F
:10058D0003CD751B027D087F01120941E512700331
:10059D00020634B4010E0511D3E511648094FD40BB
:1005AD000375117DE512B402111511D3E50C6480AC
:1005BD00F8E51164809850020511E512B403110598
:1005CD000CC3E5116480F8E50C6480984002150CAD
:1005DD00E512B4040E150CC3E50C64809449500368
:1005ED00750CC9E511FB3395E0FA751B037D047F8E
:1005FD00021206E3E50CFB3395E0FA751B037D0C47
:10060D007F021206E3E511FD3395E0FCE4FF1208CD
:10061D007E7F05120A37E50CFD3395E0FC7F011254
:10062D00087E7F05120A37AC11EC120248AB10AAF6
:10063D000FA90EA80D1201B4600A40087BFF7A09BC
:10064D0079A28019AC0CEC120248AB10AA0FA90EBE
:10065D00A80D1201B450177BFF7A0979A77D0D7F84
:10066D00011208A27F647E001208C50204F77BFF09
:0E067D007A0979AC7D0D7F011208A20204F704
:03000B0002068B5F
:10068B00C0E0C0F0C083C082C0D075D000C000C035
:0D069B0001C002C003C004C005C006C007B6
:1006A800758A66758CFC0509E50970020508C3940E
:1006B80014E50894004009750800750900120756EA
:1006C800D007D006D005D004D003D002D001D00086
:0B06D800D0D0D082D083D0F0D0E03230
:100A3700AE071FEE600A7E027DC7DDFEDEFC80F09A
:010A4700228C
:0D0A57001209057FCC1209B17F440209B1DC
:10082A001209057FCC1209B17FBE1209B112095E05
:10083A008F1712095EEFFEE517FFFDAC06EC1202F8
:0B084A0043E4FBFA79807841020117BB
:060A4800C2A58F80D2A7B9
:080A4E007F027EEFDEFEDFFCFB
:010A5600227D
:0A0A7C00C2A6120A48C2A7020A4EE1
:1008E700CFCDCFCECCCE12033C7C007D0A12033C89
:0408F700ED2430FFBD
:0A08FB00D2A6120A48C2A7020A4E54
:1009E100AE07BE0104ED148006BE0209ED243F44AA
:0609F10080FF120A7C22C7
:100A23007F38120A7C7F0C120A7C7F06120A7C7FB5
:040A330001020A7C36
:0A0A8600AC031209E1AF040208FB03
:0608A2008B178A1889196A
:1008A8001209E1E4FDAB17AA18A9198D8275830016
:0C08B8001202FDFF60061208FB0D80E933
:0108C4002211
:0C07C7007F0AEA24FFFDE434FFFC7E0002
:0807D3008E1E8F1F8C208D216A
:1007DB007F017E00E4FBEBC39521E5206480F87478
:0E07EB008098500AAC1EAD1F12032A0B80E846
:0107F90022DD
:040941008A198B1A6A
:100945001209E1AA1BEAD39400400D1207C7AC199E
:08095500AD1A1208E71A80ED4B
:01095D002277
:1006E3001209E1C3EA64809480400B7F2B1208FB5C
:1006F3008A1C8B1D800E7F2D1208FBC3E49BF51D06
:10070300E49AF51CAA1BEAD39400400D1207C7AC68
:090713001CAD1D1208E71A80ED6F
:01071C0022BA
:04071D008A248B257A
:100721001209E1AA26EAD3940040297F101207C9D1
:10073100AC24AD25CFCDCFCECCCE12033CEF540FA0
:10074100FEC3940AEE5004243080022437FF1208BD
:04075100FB1A80D13E
:010755002281
:04078F008A298B2AFE
:100793001209E1AA2BEAD394004028EA24FFFDE4DE
:1007A30034FFFC7F027E001207D3AC29AD2ACFCDE4
:1007B300CFCECCCE12033CEF54012430FF1208FB02
:0307C3001A80D2C7
:0107C6002210
:10090500C2AFD2B7C2B77FE3DFFED2B77F1DDFFE2E
:0D091500A2B7E433FE7FE3DFFED2AFAF06F2
:0109220022B2
:1009F700C2AFC2B77E04DEFEEF24FF92B77E16DEDB
:050A0700FED2B7D2AFE2
:010A0C0022C7
:10097B00C2AFC2B77F02DFFED2B77F02DFFEA2B7E4
:0B098B00E433FE7F16DFFED2AFAF06A4
:01099600223E
:0209B100AD0790
:1009B300E4FCA8047401088002C333D8FC5DFF1271
:0609C30009F70CBC08EC72
:0109C900220B
:10095E00E4FDFC12097BEF600DA80474010880020F
:0C096E00C333D8FC42050CBC08E9AF05FF
:01097A00225A
:10087E008F178C188D19120A9A7FA0120855120A1A
:10088E0064AF17120855120A64AF19120855120AEE
:04089E0064020003ED
:0207FA008F1757
:1007FC00120A9A7FA0120855120A64AF17120855F4
:10080C00120A64120A9A7FA1120855120A6412097C
:0D081C00238F187F01120A90120003AF18FD
:0108290022AC
:090A9A00D2A0D2A1C2A0C2A12287
:07000300C2A0D2A1D2A0228D
:02085500AD07ED
:10085700E4FB7E007480A803088006CEA2E713CECF
:1008670013D8F8FFEDF582EF558224FF92A0D2A1AD
:06087700C2A10BBB08DC6E
:01087D002258
:10092300E4FFD2A0FED2A130A00DA80674800880F7
:0D09330002C313D8FC4207C2A10EBE08E8A3
:010940002294
:0A0A9000EF24FF92A0D2A1C2A12220
:0B0A6400D2A0D2A1A2A0E433FFC2A1E7
:010A6F002264
:050AA300E4AF2EF52E6A
:010AA800222B
:100A0D00E4FF20B1010F20B0027F0220B2027F036C
:050A1D0020B3027F047C
:010A220022B1
:10075600852C2D120A0D8F2CE52DB40107E52C7082
:1007660003752E01E52DB40207E52C7003752E02E4
:10077600E52DB40307E52C7003752E03E52DB404AF
:0807860007E52C7003752E0439
:01078E002248
:1009CA005389F0438901758A66758CFCC28DD28C75
:0709DA00D2A9D2AFC2B9227D
:050AA900007FE3DFFE09
:010AAE002225
:0408C500AD07AC06C9
:1008C900E4FBFAED25E0FFEC33FEC3EB9FEA9E5013
:0D08D9000CB2A5120AA90BBB00010A80E6B3
:0108E60022EF
:10000E00EC4D6011E8497017ED33EC3304600DE4EC
:10001E00FCFFFEFD22E933E8330470F80202E81219
:10002E0002B358046009E4CC24815006285009021A
:10003E0002F22840030202EFC0E0EB4A7044B9809E
:10004E0006D0E0FB0202DEEF4E701CBD8008EBFF17
:10005E00EAFEE9FD80EBE98DF0A4FEE5F00200F783
:10006E00E9CDF9EAFEEBFFEF89F0A4FCE5F0CE89CD
:10007E00F0A42EFFE435F0CD89F0A42DFEE435F08A
:10008E008067EF4E7005BD80D780C3EF8BF0A4ACB8
:10009E00F0EE8BF0A42CFCE435F0F8EF8AF0A42CF3
:1000AE00E5F038FCE433CB8DF0A42CFCE5F03BF806
:1000BE00EE8AF0A42CFCE5F038F8E433CF89F0A4F6
:1000CE002CFCE5F038CF3400CE89F0A42FFFE5F0FC
:1000DE003EFEE433C98DF0A42EFEE5F039CD8AF054
:1000EE00A42FFFE5F03EFEE43DFD33D0E0FB5007CC
:1000FE000BBB000F0202F2EC2CFCEF33FFEE33FED3
:06010E00ED33FD0202CA00
:100114000202F2EC5D046005E8590470030202E88F
:100124001202B3580460F6EC4860F2EC7004FDFE71
:10013400FF22C860DB2481C85009C39860025006BE
:100144000202EF9850CAF582E9294B4A7005AB8246
:100154000202DE75F0007C1A7880C3EF9BEE9AED04
:1001640099400DC3EF9BFFEE9AFEED99FDE842F036
:10017400DC23ACF0D0E0FFD0E0FED0E0FDAB822089
:10018400E7101BEB60BAEC2CFCEF33FFEE33FEED13
:1001940033FD0202CAE803F830E705C0F075F00049
:1001A400EF2FFFEE33FEED33FD40B830E7C280AAF7
:1001B40074F8CC6480CCC86480C8F58204604FC3F2
:1001C400EB9FF5F0EA9E42F0E99D42F0E89C45F091
:1001D400603C501DE5825FFFE582D313CB5BCBF41B
:1001E4002B5582FB50280ABA002409B90020088044
:1001F4001DE5825BFBE582D313CF5FCFF4C3132FDE
:100204005582FF50090EBE00050DBD00010CC3EB65
:100214009FF5F0EA9E42F0E99D42F0E89C45F060CB
:0902240007CC4820E701B3EC22ED
:10022D00ED33EC33600A047003BD8004ECB2E7FCDF
:01023D00229E
:10023E0075F020800E75F010800575F0087D007E3B
:10024E00007F003392D530D50312045FEC3340109B
:10025E00EF33FFEE33FEED33FDEC33FCD5F0ED2244
:0E026E00E5F0247EA2D513CC92E7CDCEFF2280
:10027C00EDD2E7CD33EC3392D524814006E4FFFE7A
:10028C00FDFC22FCE4CFCECDCC24E0501174FF80D9
:10029C00EDC3CC13CCCD13CDCE13CECF13CF047076
:0702AC00F030D5DE02045F13
:1002B300E9D2E7C933E833F892D5EDD2E7CD33EC91
:0702C30033FC5002B2D5220A
:1002CA00EC30E7100FBF000C0EBE00080DBD000495
:1002DA000BEB6014A2D5EB13FCED92E7FD2274FF41
:1002EA00FCFDFEFF22E480F8A2D574FF13FC7D809A
:0302FA00E480EFAE
:03000000020A7081
:0C0A7000787FE4F6D8FD75812E02046D3D
:1002FD00BB010CE58229F582E5833AF583E02250B6
:10030D0006E92582F8E622BBFE06E92582F8E222FF
:0D031D00E58229F582E5833AF583E4932219
:10032A00EF8DF0A4A8F0CF8CF0A428CE8DF0A42EE7
:02033A00FE22A1
:10033C00BC000BBE0029EF8DF084FFADF022E4CCA5
:10034C00F875F008EF2FFFEE33FEEC33FCEE9DEC6E
:10035C00984005FCEE9DFE0FD5F0E9E4CEFD22EDB4
:10036C00F8F5F0EE8420D21CFEADF075F008EF2FFE
:10037C00FFED33FD4007985006D5F0F222C398FDEF
:05038C000FD5F0EA228C
:1003910075F008758200EF2FFFEE33FECD33CDCC23
:1003A10033CCC58233C5829BED9AEC99E5829840A6
:1003B1000CF582EE9BFEED9AFDEC99FC0FD5F0D683
:1003C100E4CEFBE4CDFAE4CCF9A88222B800C1B9AD
:1003D1000059BA002DEC8BF084CFCECDFCE5F0CBEB
:1003E100F97818EF2FFFEE33FEED33FDEC33FCEB24
:1003F10033FB10D703994004EB99FB0FD8E5E4F9DF
:10040100FA227818EF2FFFEE33FEED33FDEC33FCCB
:10041100C933C910D7059BE99A4007EC9BFCE99ABF
:10042100F90FD8E0E4C9FAE4CCFB2275F010EF2F04
:10043100FFEE33FEED33FDCC33CCC833C810D70704
:100441009BEC9AE899400AED9BFDEC9AFCE899F83F
:0E0451000FD5F0DAE4CDFBE4CCFAE4C8F922D2
:0E045F00C3E49FFFE49EFEE49DFDE49CFC22AE
:00000001FF
