:10028C0048656C6C6F0057656C636F6D6520746F9F
:07029C00204368696E610058
:1000CD001202A37B417D017F011202FD7BFF7A02AB
:1000DD00798C7D037F0112022E750C027B427A0012
:1000ED007D097F0112026F750C027BA87AFF7D0CD2
:1000FD007F01120188750C027BAA7A007D017F02B7
:10010D00120149750C087BA57A007D047F0212014E
:10011D00C27BDF7D0D7F021202FD7B437D0E7F02D0
:10012D001202FD7BFF7A0279927D107F0112022E61
:0C013D007F181202F37FF41202B780F466
:0602D800C2A58F80D2A731
:0802DE007F027EC7DEFEDFFC9B
:0102E60022F5
:0A02F300C2A61202D8C2A70202DE62
:10025100CFCDCFCECCCE1200427C007D0A1200421F
:04026100ED2430FF59
:0A026500D2A61202D8C2A70202DEE0
:1002A3007F381202F37F0C1202F37F061202F37FF0
:0402B300010202F34F
:1002C800EDBF0103148002243F4480FF1202F32291
:0A02FD00AC031202C8AF0402026550
:06022E008B088A09890A11
:100234001202C8E4FDAB08AA09A90A8D82758300DD
:0C024400120003FF60061202650D80E945
:01025000228B
:0C01FB007F0AEA24FFFDE434FFFC7E00D4
:080207008E0F8F108C118D1277
:10020F007F017E00E4FBEBC39512E5116480F87467
:0E021F008098500AAC0FAD101200300B80E832
:01022D0022AE
:04026F008A0A8B0B61
:100273001202C8AA0CEAD39400400D1201FBAC0A87
:08028300AD0B1202511A80EDCF
:01028B002250
:100188001202C8C3EA64809480400B7F2B12026578
:100198008A0D8B0E800E7F2D120265C3E49BF50E2F
:1001A800E49AF50DAA0CEAD39400400D1201FBACB9
:0901B8000DAD0E1202511A80ED8A
:0101C100221B
:040149008A0A8B0B88
:10014D001202C8AA0CEAD39400402F7F101201FDB1
:10015D00AC0AAD0BCFCDCFCECCCE1200977C007DAF
:10016D0010120097AE05EEC3940AEE5004243080B1
:0A017D00022437FF1202651A80CB3E
:010187002255
:0401C2008A0A8B0B0F
:1001C6001202C8AA0CEAD394004029EA24FFFDE4EF
:1001D60034FFFC7F027E00120207AC0AAD0BCFCDC6
:1001E600CFCECCCE1200977C007D02120097120271
:0401F600611A80D139
:0101FA0022E2
:1002B700AE071FEE600A7E027DC7DDFEDEFC80F022
:0102C7002214
:030000000202E712
:0C02E700787FE4F6D8FD7581120200CD8E
:10000300BB010CE58229F582E5833AF583E02250B2
:1000130006E92582F8E622BBFE06E92582F8E222FC
:0D002300E58229F582E5833AF583E4932216
:10003000EF8DF0A4A8F0CF8CF0A428CE8DF0A42EE4
:02004000FE229E
:10004200BC000BBE0029EF8DF084FFADF022E4CCA2
:10005200F875F008EF2FFFEE33FEEC33FCEE9DEC6B
:10006200984005FCEE9DFE0FD5F0E9E4CEFD22EDB1
:10007200F8F5F0EE8420D21CFEADF075F008EF2FFB
:10008200FFED33FD4007985006D5F0F222C398FDEC
:050092000FD5F0EA2289
:10009700C2D5EC30E709B2D5E4C39DFDE49CFCEE84
:1000A70030E715B2D5E4C39FFFE49EFE120042C3BA
:1000B700E49DFDE49CFC800312004230D507C3E4B5
:0600C7009FFFE49EFE22F3
:00000001FF
