:1008180020200020202D20202D20200020203A20DC
:05082800203A20200031
:10041F00120635E518FB3395E0FA750C027D017F66
:10042F00011207CEE519FB3395E0FA750C027D0436
:10043F007F011207CEE51AFB3395E0FA750C027DAA
:10044F00077F011207CEE51BFB3395E0FA750C020F
:10045F007D017F021207CEE51CFB3395E0FA750C88
:10046F00027D047F021207CEE51DFB3395E0FA757E
:09047F000C027D077F020207CE8A
:10000E00E524B4020B0521E52175F0068485F02167
:10001E00E524640360030200E874182521F806D372
:10002E00E518648094E34003E4F518D3E519648081
:10003E00948C4003751901E51964016023E5196478
:10004E0003601DE51964056017E51964076011E585
:10005E00196408600BE519640A6005E519B40C0B08
:10006E00D3E51A6480949F404D8048E5196404607E
:10007E0011E5196406600BE51964096005E519B40C
:10008E000B0BD3E51A6480949E402B8026E519B4A1
:10009E000224E51875F0041202DDAFF0EF700BD3F9
:1000AE00E51A6480949D400E8009D3E51A6480940D
:1000BE009C4003751A01D3E51B648094974003E4BA
:1000CE00F51BD3E51C648094BB4003E4F51CD3E51B
:1000DE001D648094BB4003E4F51DE52464046003B5
:1000EE000201E374182521F816C3E5186480948084
:1000FE005003751863C3E519648094815003751914
:10010E000CE51964016023E5196403601DE51964AB
:10011E00056017E51964076011E5196408600BE5C1
:10012E0019640A6005E519B40C17C3E51A648094C6
:10013E00815003751A1FD3E51A6480949F40728014
:10014E006DE51964046011E5196406600BE5196428
:10015E00096005E519B40B17C3E51A648094815044
:10016E0003751A1ED3E51A6480949E4044803FE5C1
:10017E00196402703CE51875F0041202DDAFF0EF61
:10018E007017C3E51A648094815003751A1DD3E568
:10019E001A6480949D401A8015C3E51A6480948178
:1001AE005003751A1CD3E51A6480949C4003751A8B
:1001BE0001C3E51B648094805003751B17C3E51CB7
:1001CE00648094805003751C3BC3E51D648094804D
:1001DE005003751D3BE5217014E523B4010F7BFF21
:1001EE007A0879187D017F0112078D8011E518FBC1
:1001FE003395E0FA750C027D017F011207CEE521E1
:10020E00B40114E523B4010F7BFF7A0879187D043D
:10021E007F0112078D8011E519FB3395E0FA750CFD
:10022E00027D047F011207CEE521B40214E523B44A
:10023E00010F7BFF7A0879187D077F0112078D80E9
:10024E0011E51AFB3395E0FA750C027D077F01125A
:10025E0007CEE521B40314E523B4010F7BFF7A0822
:10026E0079187D017F0212078D8011E51BFB3395F6
:10027E00E0FA750C027D017F021207CEE521B4046F
:10028E0014E523B4010F7BFF7A0879187D047F02F1
:10029E0012078D8011E51CFB3395E0FA750C027D7B
:1002AE00047F021207CEE521B40512E523B4010D39
:1002BE007BFF7A0879187D077F0202078DE51DFB0B
:0F02CE003395E0FA750C027D077F021207CE22EE
:1004E40012082D1200031207EB7BFF7A08791B7D9B
:1004F400017F0112078D7BFF7A0879247D017F0239
:1005040012078D1204881205958F24E5246019B40E
:100514000116E522B40108E4F5221204888009E5F5
:10052400227005752201F521E5221460080470D6B5
:0A05340012041F80D112000E80CCCB
:03000B000206B03A
:0906B000C0E0C0D075D000C00705
:1006B900758A66758CFC0520E5207002051FC394B8
:1006C900F4E51F94014012751F00752000E52370A1
:0906D900047F0180027F008F23E1
:0706E200D007D0D0D0E032B8
:06087700C2A58F80D2A78C
:08087D007F027EEFDEFEDFFCCE
:010885002250
:0A088600C2A6120877C2A702087D7F
:1007B000CFCDCFCECCCE12033E7C007D0A12033EBD
:0407C000ED2430FFF5
:0A07C400D2A6120877C2A702087D32
:10080200AE07BE0104ED148006BE0209ED243F448A
:0608120080FF120886229F
:10082D007F381208867F0C1208867F061208867F95
:04083D000102088626
:0A089000AC03120802AF040207C413
:06078D008B088A09890AAD
:10079300120802E4FDAB08AA09A90A8D8275830039
:0C07A3001202FFFF60061207C40D80E97F
:0107AF002227
:0C075A007F0AEA24FFFDE434FFFC7E006F
:080766008E0D8F0E8C0F8D101B
:10076E007F017E00E4FBEBC39510E50F6480F87407
:0E077E008098500AAC0DAD0E12032C0B80E8D3
:01078C00224A
:0407CE008A0A8B0BFD
:1007D200120802AA0CEAD39400400D12075AAC0A7E
:0807E200AD0B1207B01A80ED07
:0107EA0022EC
:10067600120802C3EA64809480400B7F2B1207C4E1
:100686008A168B17800E7F2D1207C4C3E49BF517BD
:10069600E49AF516AA15EAD39400400D12075AAC4F
:0906A60016AD171207B01A80ED21
:0106AF002228
:0406E9008A278B28A9
:1006ED00120802AA29EAD3940040297F1012075C50
:1006FD00AC27AD28CFCDCFCECCCE12033EEF540FCD
:10070D00FEC3940AEE5004243080022437FF1207F2
:04071D00C41A80D1A9
:0107210022B5
:040722008A2C8B2D65
:10072600120802AA2EEAD394004028EA24FFFDE428
:1007360034FFFC7F027E00120766AC2CAD2DCFCDB8
:10074600CFCECCCE12033EEF54012430FF1207C4A5
:030756001A80D234
:01075900227D
:09089A000718180101173B370192
:05000300C2B6C2B422E8
:06053E008C088D09AB07DB
:10054400D2B5E4FD7E007401A805088005C333CE4E
:1005540033CED8F9FFEBF582EF558224FF92B4D263
:10056400B6C2B60DBD08DDE4FD7E007401A8050821
:100574008005C333CE33CED8F9FFE5085EFEE50926
:100584005F4E24FF92B4D2B6C2B60DBD08DBC2B52D
:010594002244
:0205E700AD075E
:1005E900E4F9430501D2B5FB7E007401A803088034
:1005F90005C333CE33CED8F9FFEDF582EF5582240A
:10060900FF92B4C2B6D2B60BBB08DDE4FBD2B6C2C8
:10061900B630B40DA8037401088002C333D8FC4274
:0B062900010BBB08E8C2B5C2B4AF0172
:0106340022A3
:030854001205E7A3
:0E085700EFC4540F75F00AA4FEEF540F2EFFED
:010865002270
:10084100EF75F00A84C454F0FEEF75F00A84EE25CA
:02085100F0FFB6
:010853002282
:10048800E4FDFC7F8E12053EAF18120841EFFD7F98
:100498008C12053EAF19120841EFFD7F8812053E08
:1004A800AF1A120841EFFD7F8612053EAF1B1208F6
:1004B80041EFFD7F8412053EAF1C120841EFFD7F1E
:1004C8008212053EAF1D120841EFFD7F8012053EE6
:0C04D800AF1E120841EFFD7F8A02053EB6
:100635007F8C1208548F187F881208548F197F8673
:100645001205E71208578F1A7F841205E71208571B
:100655008F1B7F821205E71208578F1C7F801205BA
:10066500E71208578F1D7F8A1205E71208578F1E5C
:010675002262
:10086600AE071FEE600A7E027DEFDDFEDEFC80F045
:01087600225F
:10059500E4F50820B1107F1412086630B1FD7F1410
:1005A50012086675080120B0107F1412086630B075
:1005B500FD7F1412086675080220B2107F14120818
:1005C5006630B2FD7F1412086675080320B3107FEC
:1005D5001412086630B3FD7F14120866750804AF5F
:0105E500080D
:0105E60022F2
:1007EB005389F0438901758A66758CFCC28DD28C56
:0707FB00D2A9D2AFC2B9225E
:0300000002039365
:0C039300787FE4F6D8FD75812E0203DAB5
:1002DD00C2D530F707B2D563F0FF05F030E70CB2A9
:1002ED00D5F4048463F0FF05F080018430D502F469
:0202FD000422D9
:1002FF00BB010CE58229F582E5833AF583E02250B4
:10030F0006E92582F8E622BBFE06E92582F8E222FD
:0D031F00E58229F582E5833AF583E4932217
:10032C00EF8DF0A4A8F0CF8CF0A428CE8DF0A42EE5
:02033C00FE229F
:10033E00BC000BBE0029EF8DF084FFADF022E4CCA3
:10034E00F875F008EF2FFFEE33FEEC33FCEE9DEC6C
:10035E00984005FCEE9DFE0FD5F0E9E4CEFD22EDB2
:10036E00F8F5F0EE8420D21CFEADF075F008EF2FFC
:10037E00FFED33FD4007985006D5F0F222C398FDED
:05038E000FD5F0EA228A
:10039F000204E4E493A3F8E493A34003F68001F28C
:1003AF0008DFF48029E493A3F85407240CC8C3335F
:1003BF00C4540F4420C8834004F456800146F6DF2E
:1003CF00E4800B010204081020408090089AE47E1C
:1003DF00019360BCA3FF543F30E509541FFEE49323
:1003EF00A360010ECF54C025E060A840B8E493A3EA
:1003FF00FAE493A3F8E493A3C8C582C8CAC583CA15
:10040F00F0A3C8C582C8CAC583CADFE9DEE780BECC
:0108A3000054
:00000001FF
