:1008190020200020202D20202D20200020203A20DB
:05082900203A20200030
:10041F00120636E518FB3395E0FA750C027D017F65
:10042F00011207CFE519FB3395E0FA750C027D0435
:10043F007F011207CFE51AFB3395E0FA750C027DA9
:10044F00077F011207CFE51BFB3395E0FA750C020E
:10045F007D017F021207CFE51CFB3395E0FA750C87
:10046F00027D047F021207CFE51DFB3395E0FA757D
:09047F000C027D077F020207CF89
:10000E00E524B4020B0521E52175F0068485F02167
:10001E00E524640360030200E874182521F806D372
:10002E00E518648094E34003E4F518D3E519648081
:10003E00948C4003751901E51964016023E5196478
:10004E0003601DE51964056017E51964076011E585
:10005E00196408600BE519640A6005E519B40C0B08
:10006E00D3E51A6480949F404D8048E5196404607E
:10007E0011E5196406600BE51964096005E519B40C
:10008E000B0BD3E51A6480949E402B8026E519B4A1
:10009E000224E51875F0041202DDAFF0EF700BD3F9
:1000AE00E51A6480949D400E8009D3E51A6480940D
:1000BE009C4003751A01D3E51B648094974003E4BA
:1000CE00F51BD3E51C648094BB4003E4F51CD3E51B
:1000DE001D648094BB4003E4F51DE52464046003B5
:1000EE000201E374182521F816C3E5186480948084
:1000FE005003751863C3E519648094815003751914
:10010E000CE51964016023E5196403601DE51964AB
:10011E00056017E51964076011E5196408600BE5C1
:10012E0019640A6005E519B40C17C3E51A648094C6
:10013E00815003751A1FD3E51A6480949F40728014
:10014E006DE51964046011E5196406600BE5196428
:10015E00096005E519B40B17C3E51A648094815044
:10016E0003751A1ED3E51A6480949E4044803FE5C1
:10017E00196402703CE51875F0041202DDAFF0EF61
:10018E007017C3E51A648094815003751A1DD3E568
:10019E001A6480949D401A8015C3E51A6480948178
:1001AE005003751A1CD3E51A6480949C4003751A8B
:1001BE0001C3E51B648094805003751B17C3E51CB7
:1001CE00648094805003751C3BC3E51D648094804D
:1001DE005003751D3BE5217014E523B4010F7BFF21
:1001EE007A0879197D017F0112078E8011E518FBBF
:1001FE003395E0FA750C027D017F011207CFE521E0
:10020E00B40114E523B4010F7BFF7A0879197D043C
:10021E007F0112078E8011E519FB3395E0FA750CFC
:10022E00027D047F011207CFE521B40214E523B449
:10023E00010F7BFF7A0879197D077F0112078E80E7
:10024E0011E51AFB3395E0FA750C027D077F01125A
:10025E0007CFE521B40314E523B4010F7BFF7A0821
:10026E0079197D017F0212078E8011E51BFB3395F4
:10027E00E0FA750C027D017F021207CFE521B4046E
:10028E0014E523B4010F7BFF7A0879197D047F02F0
:10029E0012078E8011E51CFB3395E0FA750C027D7A
:1002AE00047F021207CFE521B40512E523B4010D38
:1002BE007BFF7A0879197D077F0202078EE51DFB09
:0F02CE003395E0FA750C027D077F021207CF22ED
:1004E50012082E1200031207EC7BFF7A08791C7D97
:1004F500017F0112078E7BFF7A0879257D017F0236
:1005050012078E1204881205968F24E5246019B40B
:100515000116E522B40108E4F5221204888009E5F4
:10052500227005752201F521E5221460080470D6B4
:0A05350012041F80D112000E80CCCA
:03000B000206B139
:0906B100C0E0C0D075D000C00704
:1006BA00758A66758CFC0520E5207002051FC394B7
:1006CA00F4E51F94014012751F00752000E52370A0
:0906DA00047F0180027F008F23E0
:0706E300D007D0D0D0E032B7
:06087800C2A58F80D2A78B
:08087E007F027EEFDEFEDFFCCD
:01088600224F
:0A088700C2A6120878C2A702087E7C
:1007B100CFCDCFCECCCE12033E7C007D0A12033EBC
:0407C100ED2430FFF4
:0A07C500D2A6120878C2A702087E2F
:10080300AE07BE0104ED148006BE0209ED243F4489
:0608130080FF120887229D
:10082E007F381208877F0C1208877F061208877F91
:04083E000102088724
:0A089100AC03120803AF040207C510
:06078E008B088A09890AAC
:10079400120803E4FDAB08AA09A90A8D8275830037
:0C07A4001202FFFF60061207C50D80E97D
:0107B0002226
:0C075B007F0AEA24FFFDE434FFFC7E006E
:080767008E0D8F0E8C0F8D101A
:10076F007F017E00E4FBEBC39510E50F6480F87406
:0E077F008098500AAC0DAD0E12032C0B80E8D2
:01078D002249
:0407CF008A0A8B0BFC
:1007D300120803AA0CEAD39400400D12075BAC0A7B
:0807E300AD0B1207B11A80ED05
:0107EB0022EB
:10067700120803C3EA64809480400B7F2B1207C5DE
:100687008A168B17800E7F2D1207C5C3E49BF517BB
:10069700E49AF516AA15EAD39400400D12075BAC4D
:0906A70016AD171207B11A80ED1F
:0106B0002227
:0406EA008A278B28A8
:1006EE00120803AA29EAD3940040297F1012075D4D
:1006FE00AC27AD28CFCDCFCECCCE12033EEF540FCC
:10070E00FEC3940AEE5004243080022437FF1207F1
:04071E00C51A80D1A7
:0107220022B4
:040723008A2C8B2D64
:10072700120803AA2EEAD394004028EA24FFFDE426
:1007370034FFFC7F027E00120767AC2CAD2DCFCDB6
:10074700CFCECCCE12033EEF54012430FF1207C5A3
:030757001A80D233
:01075A00227C
:09089B000718180101173B370191
:05000300C2B6C2B422E8
:06053F008C088D09AB07DA
:10054500D2B5E4FD7E007401A805088005C333CE4D
:1005550033CED8F9FFEBF582EF558224FF92B4D262
:10056500B6C2B60DBD08DDE4FD7E007401A8050820
:100575008005C333CE33CED8F9FFE5085EFEE50925
:100585005F4E24FF92B4D2B6C2B60DBD08DBC2B52C
:010595002243
:0205E800AD075D
:1005EA00E4F9430501D2B5FB7E007401A803088033
:1005FA0005C333CE33CED8F9FFEDF582EF55822409
:10060A00FF92B4C2B6D2B60BBB08DDE4FBD2B6C2C7
:10061A00B630B40DA8037401088002C333D8FC4273
:0B062A00010BBB08E8C2B5C2B4AF0171
:0106350022A2
:030855001205E8A1
:0E085800EFC4540F75F00AA4FEEF540F2EFFEC
:01086600226F
:10084200EF75F00A84C454F0FEEF75F00A84EE25C9
:02085200F0FFB5
:010854002281
:100488007D807C007F8E12053FAF18120842EFFD79
:100498007F8C12053FAF19120842EFFD7F881205C5
:1004A8003FAF1A120842EFFD7F8612053FAF1B12BD
:1004B8000842EFFD7F8412053FAF1C120842EFFD92
:1004C8007F8212053FAF1D120842EFFD7F801205A3
:0D04D8003FAF1E120842EFFD7F8A02053F74
:100636007F8C1208558F187F881208558F197F8670
:100646001205E81208588F1A7F841205E812085816
:100656008F1B7F821205E81208588F1C7F801205B7
:10066600E81208588F1D7F8A1205E81208588F1E57
:010676002261
:10086700AE071FEE600A7E027DEFDDFEDEFC80F044
:01087700225E
:10059600E4F50820B1107F1412086730B1FD7F140E
:1005A60012086775080120B0107F1412086730B072
:1005B600FD7F1412086775080220B2107F14120816
:1005C6006730B2FD7F1412086775080320B3107FE9
:1005D6001412086730B3FD7F14120867750804AF5C
:0105E600080C
:0105E70022F1
:1007EC005389F0438901758A66758CFCC28DD28C55
:0707FC00D2A9D2AFC2B9225D
:0300000002039365
:0C039300787FE4F6D8FD75812E0203DAB5
:1002DD00C2D530F707B2D563F0FF05F030E70CB2A9
:1002ED00D5F4048463F0FF05F080018430D502F469
:0202FD000422D9
:1002FF00BB010CE58229F582E5833AF583E02250B4
:10030F0006E92582F8E622BBFE06E92582F8E222FD
:0D031F00E58229F582E5833AF583E4932217
:10032C00EF8DF0A4A8F0CF8CF0A428CE8DF0A42EE5
:02033C00FE229F
:10033E00BC000BBE0029EF8DF084FFADF022E4CCA3
:10034E00F875F008EF2FFFEE33FEEC33FCEE9DEC6C
:10035E00984005FCEE9DFE0FD5F0E9E4CEFD22EDB2
:10036E00F8F5F0EE8420D21CFEADF075F008EF2FFC
:10037E00FFED33FD4007985006D5F0F222C398FDED
:05038E000FD5F0EA228A
:10039F000204E5E493A3F8E493A34003F68001F28B
:1003AF0008DFF48029E493A3F85407240CC8C3335F
:1003BF00C4540F4420C8834004F456800146F6DF2E
:1003CF00E4800B010204081020408090089BE47E1B
:1003DF00019360BCA3FF543F30E509541FFEE49323
:1003EF00A360010ECF54C025E060A840B8E493A3EA
:1003FF00FAE493A3F8E493A3C8C582C8CAC583CA15
:10040F00F0A3C8C582C8CAC583CADFE9DEE780BECC
:0108A4000053
:00000001FF
