:0B039B004D65747269784B65793A007B
:1002BF0012035B7BFF7A03799B7D017F011202E7BB
:1002CF001200038F22E52260F7FB7A00750C027D86
:0802DF00017F0212032880E8F0
:10036F00AE071FEE600A7E027DEFDDFEDEFC80F041
:01037F00225B
:06038000C2A58F80D2A788
:080386007F027EEFDEFEDFFCCA
:01038E00224C
:0A03A600C2A6120380C2A70203865C
:10030A00CFCDCFCECCCE12018C7C007D0A12018CCF
:04031A00ED2430FF9F
:0A031E00D2A6120380C2A7020386D4
:10034500AE07BE0104ED148006BE0209ED243F444C
:0603550080FF1203A62246
:10035B007F381203A67F0C1203A67F061203A67F1B
:04036B00010203A6E2
:0A03B000AC03120345AF0402031E64
:0602E7008B088A09890A58
:1002ED00120345E4FDAB08AA09A90A8D82758300A6
:0C02FD0012014DFF600612031E0D80E987
:0103090022D1
:0C028C007F0AEA24FFFDE434FFFC7E0042
:080298008E0D8F0E8C0F8D10EE
:1002A0007F017E00E4FBEBC39510E50F6480F874DA
:0E02B0008098500AAC0DAD0E12017A0B80E85A
:0102BE00221D
:040328008A0A8B0BA7
:10032C00120345AA0CEAD39400400D12028CAC0ABD
:08033C00AD0B12030A1A80ED5B
:010344002296
:1001E100120345C3EA64809480400B7F2B12031EE7
:1001F1008A168B17800E7F2D12031EC3E49BF51701
:10020100E49AF516AA15EAD39400400D12028CACBB
:0902110016AD1712030A1A80ED64
:01021A0022C1
:04021B008A1A8B1B95
:10021F00120345AA1CEAD3940040297F1012028EC4
:10022F00AC1AAD1BCFCDCFCECCCE12018CEF540F6D
:10023F00FEC3940AEE5004243080022437FF1203C9
:04024F001E1A80D122
:010253002288
:040254008A1F8B2052
:10025800120345AA21EAD394004028EA24FFFDE4CA
:1002680034FFFC7F027E00120298AC1FAD20CFCD78
:10027800CFCECCCE12018CEF54012430FF12031ED6
:030288001A80D207
:01028B002250
:10000300E4F5087590FFC2932097107F1412036FD5
:100013003097FD7F1412036F7508012096107F142B
:1000230012036F3096FD7F1412036F750805209538
:10003300107F1412036F3095FD7F1412036F750840
:10004300092094107F1412036F3094FD7F14120360
:100053006F75080D7590FFC2922097107F141203DD
:100063006F3097FD7F1412036F7508022096107F7F
:100073001412036F3096FD7F1412036F7508062068
:1000830095107F1412036F3095FD7F1412036F7563
:10009300080A2094107F1412036F3094FD7F14120A
:1000A300036F75080E7590FFC2912097107F14128D
:1000B300036F3097FD7F1412036F750803209610AA
:1000C3007F1412036F3096FD7F1412036F750807B8
:1000D3002095107F1412036F3095FD7F1412036F68
:1000E30075080B2094107F1412036F3094FD7F1456
:1000F30012036F75080F7590FFC2902097107F143D
:1001030012036F3097FD7F1412036F750804209656
:10011300107F1412036F3096FD7F1412036F75085E
:10012300082095107F1412036F3095FD7F1412037E
:100133006F75080C2094107F1412036F3094FD7FA9
:090143001412036F750810AF08D7
:01014C002290
:0300000002038F69
:0C038F00787FE4F6D8FD7581220202BFE1
:10014D00BB010CE58229F582E5833AF583E0225067
:10015D0006E92582F8E622BBFE06E92582F8E222B1
:0D016D00E58229F582E5833AF583E49322CB
:10017A00EF8DF0A4A8F0CF8CF0A428CE8DF0A42E99
:02018A00FE2253
:10018C00BC000BBE0029EF8DF084FFADF022E4CC57
:10019C00F875F008EF2FFFEE33FEEC33FCEE9DEC20
:1001AC00984005FCEE9DFE0FD5F0E9E4CEFD22ED66
:1001BC00F8F5F0EE8420D21CFEADF075F008EF2FB0
:1001CC00FFED33FD4007985006D5F0F222C398FDA1
:0501DC000FD5F0EA223E
:00000001FF
