:0500920012000380FED6
:03002300020026B2
:10002600C0E0C0F0C083C082C0D075D000C000C0A0
:1000360001C002C003C004C005C006C00730980C4A
:10004600E599F4F5A0AF9912008AC298D007D006B8
:10005600D005D004D003D002D001D000D0D0D082B9
:07006600D083D0F0D0E0329E
:1000030075985053877F53890F438920758BFA75F1
:0D0013008DFAC2ABD28ED2ACD2AFC2BC22ED
:08008A008F993099FDC2992203
:10006D00AE071FEE600A7E0B7DBEDDFEDEFC80F06E
:01007D002260
:0300000002007E7D
:0C007E00787FE4F6D8FD7581070200923F
:00000001FF
