:100260001203C91201CF8F29E52964017023052BE0
:10027000532B03E52B7002F528E52BB401037528F9
:1002800032E52BB4020375284BE52BB40303752824
:0A02900064AD2B7F0112016480C9E8
:03000B00020340AD
:10034000C0E0C0F0C0D0758AAE758CFB052AE52AE6
:1003500075F0648485F02AE52AC395285004D2906C
:0B0360008002C290D0D0D0F0D0E0327C
:1003F400AE071FEE600A7E027DEFDDFEDEFC80F0BC
:0104040022D5
:1001CF00E4F53320B1107F141203F430B1FD7F1426
:1001DF001203F475330120B0107F141203F430B002
:1001EF00FD7F141203F475330220B2107F14120333
:1001FF00F430B2FD7F141203F475330320B3107F74
:10020F00141203F430B3FD7F141203F4753304AFEB
:01021F0033AB
:0102200022BB
:06041500C2A58F80D2A7F2
:08041B007F027EC7DEFEDFFC5C
:0104230022B6
:0A043100C2A6120415C2A702041BA4
:10038E00CFCDCFCECCCE12004D7C007D0A12004DCB
:04039E00ED2430FF1B
:0A03A200D2A6120415C2A702041B24
:1003E0007F381204317F0C1204317F061204317FF2
:0403F00001020431D1
:10040500EDBF0103148002243F4480FF1204312212
:0A043B00AC03120405AF040203A293
:06036B008B308A3189325B
:10037100120405E4FDAB30AA31A9328D82758300E8
:0C03810012000EFF60061203A20D80E9BE
:01038D00224D
:0C030D007F0AEA24FFFDE434FFFC7E00C0
:080319008E2C8F2D8C2E8D2FF0
:100321007F017E00E4FBEBC3952FE52E6480F8741A
:0E0331008098500AAC2CAD2D12003B0B80E8DA
:01033F00229B
:0403AC008A1B8B1C01
:1003B000120405AA1DEAD39400400D12030DAC1BD4
:0803C000AD1C12038E1A80ED42
:0103C8002212
:10029A00120405C3EA64809480400B7F2B1203A2E8
:1002AA008A178B18800E7F2D1203A2C3E49BF518C0
:1002BA00E49AF517AA16EAD39400400D12030DAC7E
:0902CA0017AD1812038E1A80ED25
:0102D3002208
:040221008A208B2183
:10022500120405AA22EAD39400402F7F1012030F6F
:10023500AC20AD21CFCDCFCECCCE1200A27C007D9F
:10024500101200A2AE05EEC3940AEE5004243080CD
:0A025500022437FF1203A21A80CB27
:01025F00227C
:0402D4008A258B26C6
:1002D800120405AA27EAD394004029EA24FFFDE482
:1002E80034FFFC7F027E00120319AC25AD26CFCD6A
:1002F800CFCECCCE1200A27C007D021200A2120347
:040308009E1A80D1E8
:01030C0022CE
:0C0424000A083F065B4F666D7D077F6F86
:10016400EF14B40800505490017975F003A4C583CA
:1001740025F0C583730201910201950201990201E0
:100184009D0201A10201A90201B10201B9D2A48018
:100194000ED2A48012D2A48016D2A4801AC2A4D2F1
:1001A400A3D2A28016C2A4D2A3C2A2800EC2A4C2A9
:1001B400A3D2A28006C2A4C2A3C2A274082DF8E6E8
:0B01C400F5807F011203F4E4F58022B7
:1003C9005389F0438901758AAE758CFBC28DD28C35
:0703D900D2A9D2AFC2B92284
:030000000200D823
:0C00D800787FE4F6D8FD75813302011F2B
:10000E00BB010CE58229F582E5833AF583E02250A7
:10001E0006E92582F8E622BBFE06E92582F8E222F1
:0D002E00E58229F582E5833AF583E493220B
:10003B00EF8DF0A4A8F0CF8CF0A428CE8DF0A42ED9
:02004B00FE2293
:10004D00BC000BBE0029EF8DF084FFADF022E4CC97
:10005D00F875F008EF2FFFEE33FEEC33FCEE9DEC60
:10006D00984005FCEE9DFE0FD5F0E9E4CEFD22EDA6
:10007D00F8F5F0EE8420D21CFEADF075F008EF2FF0
:10008D00FFED33FD4007985006D5F0F222C398FDE1
:05009D000FD5F0EA227E
:1000A200C2D5EC30E709B2D5E4C39DFDE49CFCEE79
:1000B20030E715B2D5E4C39FFFE49EFE12004DC3A4
:1000C200E49DFDE49CFC800312004D30D507C3E49F
:0600D2009FFFE49EFE22E8
:1000E400020260E493A3F8E493A34003F68001F2D0
:1000F40008DFF48029E493A3F85407240CC8C3331D
:10010400C4540F4420C8834004F456800146F6DFEB
:10011400E4800B0102040810204080900424E47E53
:10012400019360BCA3FF543F30E509541FFEE493E0
:10013400A360010ECF54C025E060A840B8E493A3A7
:10014400FAE493A3F8E493A3C8C582C8CAC583CAD2
:10015400F0A3C8C582C8CAC583CADFE9DEE780BE8A
:0104300000CB
:00000001FF
