:1000B40075A0FE1200D41200628F0AE50A60F7B43C
:1000C40001F4050BE50BC3940240EBE4F50B80E669
:03000B0002000EE2
:0B000E00C0E0C0D075D000C000C007EB
:10001900758A66758CFC0509E50970020508C394A3
:10002900F4E50894014029750800750900E50B708D
:100039000DAFA07801EF08800123D8FDF5A0E50BED
:10004900B4010DAFA07801EF08800103D8FDF5A038
:09005900D007D000D0D0D0E03275
:1000D4005389F0438901758A66758CFCC28DD28C74
:0700E400D2A9D2AFC2B9227C
:1000EB00AE071FEE600A7E027DEFDDFEDEFC80F0C8
:0100FB0022E2
:10006200E4F50C20B1107F141200EB30B1FD7F14C7
:100072001200EB750C0120B0107F141200EB30B0AF
:10008200FD7F141200EB750C0220B2107F141200D7
:10009200EB30B2FD7F141200EB750C0320B3107F1E
:1000A200141200EB30B3FD7F141200EB750C04AF99
:0100B2000C41
:0100B300222A
:030000000200FCFF
:0C00FC00787FE4F6D8FD75810C0200B49A
:00000001FF
