:10053B0050617373776F72643A004F4B20004552D2
:0A054B005200555044006F6B200071
:0405B30002140929FC
:1000030012056B7BFF7A05793B7D017F011204DDCD
:100013001201958F13E51360F7D3940A503BC3E5A0
:10002300129404E51194005030AE16AF177C007D96
:100033000A12030C8E168F17E5132517F517E435EF
:1000430016F5160512E51270020511750C04AB17AF
:10005300AA167D017F0212051EE513640B6008E5F5
:1000630012640445117036E517B5150DE516B51480
:10007300087BFF7A05794580067BFF7A0579497D00
:100083000E7F011204DDE4F516F517F511F512756F
:100093000C04AB17AA167D017F0212051EE513B4EB
:1000A3000C17E4F516F517F511F512750C04AB17DB
:1000B300AA167D017F0212051EE513B40D25AE16A7
:1000C300AF177C007D0A12031E8E168F17E51215DB
:1000D3001270021511750C04AB17AA167D017F026D
:1000E30012051EE513640E6003020013F516F517DF
:1000F300F511F512750C04AB17AA167D017F0212D8
:10010300051E7BFF7A05794D7D0E7F011204DDC349
:10011300E5129404E5119400504B1201958F13E5F9
:100123001360ECD3940A50E7C3E5129404E51194E9
:100133000050DCAE16AF177C007D0A12030C8E163E
:100143008F17E5132517F517E43516F5160512E590
:100153001270020511750C04AB17AA167D017F02FC
:1001630012051E80AA8516148517157BFF7A05795B
:10017300517D0E7F011204DDE4F516F517F511F537
:1001830012750C04AB17AA167D017F0212051E021D
:02019300001357
:10057F00AE071FEE600A7E027DEFDDFEDEFC80F02F
:01058F002249
:06059000C2A58F80D2A776
:080596007F027EEFDEFEDFFCB8
:01059E00223A
:0A059F00C2A6120590C2A70205963D
:10050000CFCDCFCECCCE12031E7C007D0A12031EAF
:04051000ED2430FFA7
:0A051400D2A6120590C2A7020596B8
:10055500AE07BE0104ED148006BE0209ED243F443A
:0605650080FF12059F2239
:10056B007F3812059F7F0C12059F7F0612059F7F18
:04057B000102059FD5
:0A05A900AC03120555AF040205145F
:0604DD008B088A09890A60
:1004E300120555E4FDAB08AA09A90A8D827583009C
:0C04F3001202DFFF60061205140D80E904
:0104FF0022DA
:0C04AA007F0AEA24FFFDE434FFFC7E0022
:0804B6008E0D8F0E8C0F8D10CE
:1004BE007F017E00E4FBEBC39510E50F6480F874BA
:0E04CE008098500AAC0DAD0E12030C0B80E8A6
:0104DC0022FD
:04051E008A0A8B0BAF
:10052200120555AA0CEAD39400400D1204AAAC0A93
:08053200AD0B1205001A80ED6B
:01053A00229E
:1003FF00120555C3EA64809480400B7F2B120514BD
:10040F008A1D8B1E800E7F2D120514C3E49BF51ED3
:10041F00E49AF51DAA1CEAD39400400D1204AAAC6D
:09042F001DAD1E1205001A80ED3E
:0104380022A1
:040439008A218B2267
:10043D00120555AA23EAD3940040297F101204AC6B
:10044D00AC21AD22CFCDCFCECCCE12031EEF540FAB
:10045D00FEC3940AEE5004243080022437FF1205A7
:04046D00141A80D10C
:010471002268
:040472008A268B2724
:10047600120555AA28EAD394004028EA24FFFDE491
:1004860034FFFC7F027E001204B6AC26AD27CFCD2A
:10049600CFCECCCE12031EEF54012430FF1205142A
:0304A6001A80D2E7
:0104A9002230
:10019500E4F5087590FFC2932097107F1412057F30
:1001A5003097FD7F1412057F7508012096107F1486
:1001B50012057F3096FD7F1412057F750805209581
:1001C500107F1412057F3095FD7F1412057F750889
:1001D500092094107F1412057F3094FD7F141205B9
:1001E5007F75080D7590FFC2922097107F14120538
:1001F5007F3097FD7F1412057F7508022096107FCA
:100205001412057F3096FD7F1412057F75080620B0
:1002150095107F1412057F3095FD7F1412057F75AB
:10022500080A2094107F1412057F3094FD7F141264
:10023500057F75080E7590FFC2912097107F1412E7
:10024500057F3097FD7F1412057F750803209610F2
:100255007F1412057F3096FD7F1412057F75080700
:100265002095107F1412057F3095FD7F1412057FB0
:1002750075080B2094107F1412057F3094FD7F14B0
:1002850012057F75080F7590FFC2902097107F1497
:1002950012057F3097FD7F1412057F75080420969F
:1002A500107F1412057F3096FD7F1412057F7508A7
:1002B500082095107F1412057F3095FD7F141205D7
:1002C5007F75080C2094107F1412057F3094FD7FF4
:0902D5001412057F750810AF0832
:0102DE0022FD
:0300000002037385
:0C037300787FE4F6D8FD7581280203BAFB
:1002DF00BB010CE58229F582E5833AF583E02250D4
:1002EF0006E92582F8E622BBFE06E92582F8E2221E
:0D02FF00E58229F582E5833AF583E4932238
:10030C00EF8DF0A4A8F0CF8CF0A428CE8DF0A42E05
:02031C00FE22BF
:10031E00BC000BBE0029EF8DF084FFADF022E4CCC3
:10032E00F875F008EF2FFFEE33FEEC33FCEE9DEC8C
:10033E00984005FCEE9DFE0FD5F0E9E4CEFD22EDD2
:10034E00F8F5F0EE8420D21CFEADF075F008EF2F1C
:10035E00FFED33FD4007985006D5F0F222C398FD0D
:05036E000FD5F0EA22AA
:10037F00020003E493A3F8E493A34003F68001F291
:10038F0008DFF48029E493A3F85407240CC8C3337F
:10039F00C4540F4420C8834004F456800146F6DF4E
:1003AF00E4800B01020408102040809005B3E47E26
:1003BF00019360BCA3FF543F30E509541FFEE49343
:1003CF00A360010ECF54C025E060A840B8E493A30A
:1003DF00FAE493A3F8E493A3C8C582C8CAC583CA35
:1003EF00F0A3C8C582C8CAC583CADFE9DEE780BEED
:0105B7000043
:00000001FF
