:1004680020202D20202D20200020203A20203A2056
:02047800200062
:100123001204411204B97BFF7A0479687D017F01CF
:100133001203CD7BFF7A0479717D017F021203CD17
:100143001201A51202AEE518FB7A00750C027D01BF
:100153007F0112040EE519FB7A00750C027D047F02
:100163000112040EE51AFB7A00750C027D077F016C
:1001730012040EE51BFB7A00750C027D017F02124F
:10018300040EE51CFB7A00750C027D047F02120449
:100193000EE51DFB7A00750C027D077F0212040E2B
:0201A30080A139
:06048C00C2A58F80D2A77B
:080492007F027EEFDEFEDFFCBD
:01049A00223F
:0A049B00C2A612048CC2A70204924C
:1003F000CFCDCFCECCCE1200427C007D0A1200427F
:04040000ED2430FFB8
:0A040400D2A612048CC2A7020492D3
:10042B00AE07BE0104ED148006BE0209ED243F4465
:06043B0080FF12049B2269
:100441007F3812049B7F0C12049B7F0612049B7F52
:040451000102049B05
:0A04A500AC0312042BAF04020404A0
:0603CD008B088A09890A71
:1003D30012042BE4FDAB08AA09A90A8D82758300D8
:0C03E300120003FF60061204040D80E904
:0103EF0022EB
:0C039A007F0AEA24FFFDE434FFFC7E0033
:0803A6008E0D8F0E8C0F8D10DF
:1003AE007F017E00E4FBEBC39510E50F6480F874CB
:0E03BE008098500AAC0DAD0E1200300B80E896
:0103CC00220E
:04040E008A0A8B0BC0
:1004120012042BAA0CEAD39400400D12039AAC0AE0
:08042200AD0B1203F01A80ED8E
:01042A0022AF
:1002EF0012042BC3EA64809480400B7F2B1204040A
:1002FF008A168B17800E7F2D120404C3E49BF5170B
:10030F00E49AF516AA15EAD39400400D12039AAC9D
:09031F0016AD171203F01A80ED6F
:0103280022B2
:040329008A218B2278
:10032D0012042BAA23EAD3940040297F1012039CB8
:10033D00AC21AD22CFCDCFCECCCE120042EF540F9B
:10034D00FEC3940AEE5004243080022437FF1204B9
:04035D00041A80D12D
:010361002279
:040362008A268B2735
:1003660012042BAA28EAD394004028EA24FFFDE4CD
:1003760034FFFC7F027E001203A6AC26AD27CFCD4C
:10038600CFCECCCE120042EF54012430FF1204042B
:030396001A80D2F8
:010399002241
:0904AF000718180101173B370181
:0504B900C2B6C2B4222E
:060209008C088D09AB0713
:10020F00D2B5E4FD7E007401A805088005C333CE86
:10021F0033CED8F9FFEBF582EF558224FF92B4D29B
:10022F00B6C2B60DBD08DDE4FD7E007401A8050859
:10023F008005C333CE33CED8F9FFE5085EFEE5095E
:10024F005F4E24FF92B4D2B6C2B60DBD08DBC2B565
:01025F00227C
:02026000AD07E8
:10026200E4F9430501D2B5FB7E007401A8030880BE
:1002720005C333CE33CED8F9FFEDF582EF55822494
:10028200FF92B4C2B6D2B60BBB08DDE4FBD2B6C253
:10029200B630B40DA8037401088002C333D8FC42FF
:0B02A200010BBB08E8C2B5C2B4AF01FD
:0102AD00222E
:03047A001202600B
:0E047D00EFC4540F75F00AA4FEEF540F2EFFCB
:01048B00224E
:10045500EF75F00A84C454F0FEEF75F00A84EE25BA
:02046500F0FFA6
:010467002272
:1001A5007D807C007F8E120209AF18120455EFFD89
:1001B5007F8C120209AF19120455EFFD7F881202D8
:1001C50009AF1A120455EFFD7F86120209AF1B1203
:1001D5000455EFFD7F84120209AF1C120455EFFD93
:1001E5007F82120209AF1D120455EFFD7F801202B6
:1001F50009AF1E120455EFFD7F8A120209E4FD7F47
:040205008E0202095A
:1002AE007F8C12047A8F187F8812047A8F197F86BA
:1002BE0012026012047D8F1A7F8412026012047D76
:1002CE008F1B7F8212026012047D8F1C7F801202B0
:1002DE006012047D8F1D7F8A12026012047D8F1EB4
:0102EE0022ED
:0300000002009764
:0C009700787FE4F6D8FD75812A0200DEB7
:10000300BB010CE58229F582E5833AF583E02250B2
:1000130006E92582F8E622BBFE06E92582F8E222FC
:0D002300E58229F582E5833AF583E4932216
:10003000EF8DF0A4A8F0CF8CF0A428CE8DF0A42EE4
:02004000FE229E
:10004200BC000BBE0029EF8DF084FFADF022E4CCA2
:10005200F875F008EF2FFFEE33FEEC33FCEE9DEC6B
:10006200984005FCEE9DFE0FD5F0E9E4CEFD22EDB1
:10007200F8F5F0EE8420D21CFEADF075F008EF2FFB
:10008200FFED33FD4007985006D5F0F222C398FDEC
:050092000FD5F0EA2289
:1000A300020123E493A3F8E493A34003F68001F24F
:1000B30008DFF48029E493A3F85407240CC8C3335E
:1000C300C4540F4420C8834004F456800146F6DF2D
:1000D300E4800B01020408102040809004AFE47E0A
:1000E300019360BCA3FF543F30E509541FFEE49322
:1000F300A360010ECF54C025E060A840B8E493A3E9
:10010300FAE493A3F8E493A3C8C582C8CAC583CA13
:10011300F0A3C8C582C8CAC583CADFE9DEE780BECB
:0104B8000043
:00000001FF
