:0402DD0002250000F6
:100224001202950526E526700205257FE81202A92B
:10023400750C03AB26AA257D017F0112026280E3BF
:0602BA00C2A58F80D2A74F
:0802C0007F027EEFDEFEDFFC91
:0102C8002213
:0A02C900C2A61202BAC2A70202C0C8
:10024400CFCDCFCECCCE1200427C007D0A1200422C
:04025400ED2430FF66
:0A025800D2A61202BAC2A70202C029
:10027F00AE07BE0104ED148006BE0209ED243F4413
:06028F0080FF1202C922EB
:100295007F381202C97F0C1202C97F061202C97F7C
:0402A500010202C987
:0A02D300AC0312027FAF04020258D0
:060201008B228A238924F0
:1002070012027FE4FDAB22AA23A9248D8275830005
:0C021700120003FF60061202580D80E97F
:0102230022B8
:0C01CE007F0AEA24FFFDE434FFFC7E0001
:0801DA008E0D8F0E8C0F8D10AD
:1001E2007F017E00E4FBEBC39510E50F6480F87499
:0E01F2008098500AAC0DAD0E1200300B80E864
:0102000022DB
:040262008A0A8B0B6E
:1002660012027FAA0CEAD39400400D1201CEAC0A0A
:08027600AD0B1202441A80EDE9
:01027E00225D
:1001230012027FC3EA64809480400B7F2B12025833
:100133008A168B17800E7F2D120258C3E49BF51786
:10014300E49AF516AA15EAD39400400D1201CEAC39
:0901530016AD171202441A80EDEA
:01015C002280
:04015D008A1A8B1B54
:1001610012027FAA1CEAD3940040297F101201D009
:10017100AC1AAD1BCFCDCFCECCCE120042EF540F77
:10018100FEC3940AEE5004243080022437FF120289
:04019100581A80D1A7
:010195002247
:040196008A1F8B2011
:10019A0012027FAA21EAD394004028EA24FFFDE450
:1001AA0034FFFC7F027E001201DAAC1FAD20CFCDF6
:1001BA00CFCECCCE120042EF54012430FF120258A7
:0301CA001A80D2C6
:0101CD00220F
:1002A900AE071FEE600A7E027DEFDDFEDEFC80F008
:0102B9002222
:0300000002009764
:0C009700787FE4F6D8FD7581260200DEBB
:10000300BB010CE58229F582E5833AF583E02250B2
:1000130006E92582F8E622BBFE06E92582F8E222FC
:0D002300E58229F582E5833AF583E4932216
:10003000EF8DF0A4A8F0CF8CF0A428CE8DF0A42EE4
:02004000FE229E
:10004200BC000BBE0029EF8DF084FFADF022E4CCA2
:10005200F875F008EF2FFFEE33FEEC33FCEE9DEC6B
:10006200984005FCEE9DFE0FD5F0E9E4CEFD22EDB1
:10007200F8F5F0EE8420D21CFEADF075F008EF2FFB
:10008200FFED33FD4007985006D5F0F222C398FDEC
:050092000FD5F0EA2289
:1000A300020224E493A3F8E493A34003F68001F24D
:1000B30008DFF48029E493A3F85407240CC8C3335E
:1000C300C4540F4420C8834004F456800146F6DF2D
:1000D300E4800B01020408102040809002DDE47EDE
:1000E300019360BCA3FF543F30E509541FFEE49322
:1000F300A360010ECF54C025E060A840B8E493A3E9
:10010300FAE493A3F8E493A3C8C582C8CAC583CA13
:10011300F0A3C8C582C8CAC583CADFE9DEE780BECB
:0102E100001C
:00000001FF
