:10033B005772697465204F6B0020202020202020ED
:10034B00200052656164204F6B002020202020206C
:02035B00200080
:100003001203CC750C05AB23AA227D017F011203D9
:100013009912016B8F24E524B401150523E52370A0
:10002300020522750C05FBAA227D017F01120399AB
:10003300E524B40216E523152370021522750C0579
:10004300AB23AA227D017F01120399E52464037087
:100053003AFCAD23FF1202F47F051203E0E522FD13
:100063007C007F011202F47F051203E07BFF7A0319
:10007300793B7D017F021203187FE81203E07BFFC7
:100083007A0379447D017F02120318E52464047026
:1000930080FF12029B7522008F237F0112029BEFC8
:1000A300FEEE4222750C05AB23AA227D017F0112CD
:1000B30003997BFF7A03794D7D017F021203187F39
:1000C300E81203E07BFF7A0379557D017F02120377
:0400D30018020014FB
:1003E000AE071FEE600A7E027DEFDDFEDEFC80F0D0
:0103F00022EA
:10016B00E4F50820B1107F141203E030B1FD7F14C9
:10017B001203E075080120B0107F141203E030B0B9
:10018B00FD7F141203E075080220B2107F141203D6
:10019B00E030B2FD7F141203E075080320B3107F2B
:1001AB00141203E030B3FD7F141203E0750804AFA3
:0101BB00083B
:0101BC002220
:0603F100C2A58F80D2A717
:0803F7007F027EEFDEFEDFFC59
:0103FF0022DB
:0A041800C2A61203F1C2A70203F707
:10035D00CFCDCFCECCCE1201167C007D0A12011668
:04036D00ED2430FF4C
:0A037100D2A61203F1C2A70203F79F
:1003B600AE07BE0104ED148006BE0209ED243F44DB
:0603C60080FF1204182262
:1003CC007F381204187F0C1204187F061204187F51
:0403DC0001020418FE
:0A042200AC031203B6AF040203712D
:060318008B088A09890A26
:10031E001203B6E4FDAB08AA09A90A8D8275830003
:0C032E001200D7FF60061203710D80E979
:01033A0022A0
:0C0268007F0AEA24FFFDE434FFFC7E0066
:080274008E0D8F0E8C0F8D1012
:10027C007F017E00E4FBEBC39510E50F6480F874FE
:0E028C008098500AAC0DAD0E1201040B80E8F4
:01029A002241
:040399008A0A8B0B36
:10039D001203B6AA0CEAD39400400D120268AC0AFF
:0803AD00AD0B12035D1A80ED97
:0103B5002225
:1001BD001203B6C3EA64809480400B7F2B12037147
:1001CD008A168B17800E7F2D120371C3E49BF517D2
:1001DD00E49AF516AA15EAD39400400D120268AC04
:0901ED0016AD1712035D1A80ED36
:0101F60022E6
:0401F7008A1A8B1BBA
:1001FB001203B6AA1CEAD3940040297F1012026A9C
:10020B00AC1AAD1BCFCDCFCECCCE120116EF540F07
:10021B00FEC3940AEE5004243080022437FF1203ED
:04022B00711A80D1F3
:01022F0022AC
:040230008A1F8B2076
:100234001203B6AA21EAD394004028EA24FFFDE47D
:1002440034FFFC7F027E00120274AC1FAD20CFCDC0
:10025400CFCECCCE120116EF54012430FF1203711D
:030264001A80D22B
:010267002274
:1002F4008F088C098D0A1204367FA01202CB1204D7
:1003040000AF081202CB120400AF0A1202CB12048F
:040314000002043FA0
:02029B008F08CA
:10029D001204367FA01202CB120400AF081202CB5B
:1002AD001204001204367FA11202CB1204001203B5
:0D02BD007B8F097F0112042C12043FAF0952
:0102CA002211
:09043600D2A0D2A1C2A0C2A122F1
:07043F00C2A0D2A1D2A0224D
:0202CB00AD077D
:1002CD00E4FB7E007480A803088006CEA2E713CE5F
:1002DD0013D8F8FFEDF582EF558224FF92A0D2A13D
:0602ED00C2A10BBB08DCFE
:0102F30022E8
:10037B00E4FFD2A0FED2A130A00DA80674800880A5
:0D038B0002C313D8FC4207C2A10EBE08E851
:010398002242
:0A042C00EF24FF92A0D2A1C2A1228A
:0B040000D2A0D2A1A2A0E433FFC2A151
:01040B0022CE
:0300000002040CEB
:0C040C00787FE4F6D8FD7581240200031F
:1000D700BB010CE58229F582E5833AF583E02250DE
:1000E70006E92582F8E622BBFE06E92582F8E22228
:0D00F700E58229F582E5833AF583E4932242
:10010400EF8DF0A4A8F0CF8CF0A428CE8DF0A42E0F
:02011400FE22C9
:10011600BC000BBE0029EF8DF084FFADF022E4CCCD
:10012600F875F008EF2FFFEE33FEEC33FCEE9DEC96
:10013600984005FCEE9DFE0FD5F0E9E4CEFD22EDDC
:10014600F8F5F0EE8420D21CFEADF075F008EF2F26
:10015600FFED33FD4007985006D5F0F222C398FD17
:050166000FD5F0EA22B4
:00000001FF
